:020000040800F2
:1000000000800120710D0008C10D0008C10D00081D
:10001000C10D0008C10D0008C10D0008000000005E
:10002000000000000000000000000000C10D0008FA
:10003000C10D000800000000C10D0008C10D00083E
:1000400000000000C10D0008C10D0008C10D00082E
:10005000C10D0008C10D0008C10D0008C10D000848
:10006000C10D0008C10D0008C10D0008C10D000838
:10007000C10D0008C10D0008C10D0008C10D000828
:10008000C10D0008C10D0008C10D000800000000EE
:10009000000000000000000000000000C10D00088A
:1000A000C10D0008C10D0008C10D0008C10D0008F8
:1000B000C10D0008C10D0008C10D0008C10D0008E8
:1000C000C10D0008C10D0008C10D0008C10D0008D8
:1000D000C10D0008C10D0008C10D0008000000009E
:1000E000C10D0008C10D0008C10D0008000000008E
:1000F000000000000000000000000000C10D00082A
:1001000000000000C10D0008C10D0008C10D00086D
:1001100000000000000000000000000000000000DF
:10012000C10D0008C10D0008C10D0008C10D000877
:10013000C10D0008000000000000000000000000E9
:10014000000000000000000000000000C10D0008D9
:10015000C10D0008C10D0008C10D0008C10D000847
:10016000C10D0008C10D00080000000000000000E3
:10017000000000000000000000000000000000007F
:10018000000000000000000000000000000000006F
:04019000C10D000895
:1001940010B5054C237833B9044B13B10448AFF3BD
:1001A40000800123237010BD8C0400200000000097
:1001B400EC0E000808B5034B1BB103490348AFF329
:1001C400008008BD0000000090040020EC0E000830
:1001D400F0B58BB008AF00F09BF900F077FA414E10
:1001E4006D4606F110040FCC0FC594E8070085E8AE
:1001F400070096E80F0000F051FC0021002000F0F9
:1002040019FA394B93E8030000F086FD374B93E865
:10021400030000F0DDFB354B93E8030000F0F9FB2D
:10022400304E6D4606F110040FCC0FC594E807005C
:1002340085E8070096E80F0000F0F4FC294E6D46AF
:1002440006F110040FCC0FC594E8070085E80700F9
:1002540096E80F0000F020FD224E082307936D4618
:1002640006F110040FCC0FC594E8070085E80700D9
:1002740096E80F0000F082FC1D4E6D4606F1100456
:100284000FCC0FC523682B6096E80F0000F096FA98
:10029400174E6D4606F110040FCC0FC523682B6072
:1002A40096E80F0000F010FBFF23FB71FF23BB71E6
:1002B400FB79FF2BFCD0FA79BB799A42F8D0FB7911
:1002C400303BDBB2074E07936D4606F110040FCCAA
:1002D4000FC594E8070085E8070096E80F0000F0D2
:1002E4004DFCE5E71000002008000020000000207D
:1002F4003C00002080B400AF064BD3F88830054A98
:1003040043F47003C2F8883000BFBD465DF8047B37
:10031400704700BF00ED00E080B483B000AF7860A8
:100324000B46FB701346BB707B68002B1AD0FB781E
:100334000F2B17D87B681B68FA785200032101FA47
:1003440002F2D2431A407B681A607B681A68BB7851
:1003540003F00301FB785B0001FA03F31A437B68A3
:100364001A6000E000BF0C37BD465DF8047B70479F
:1003740080B483B000AF78600B46FB701346BB704B
:100384007B68002B1AD0FB780F2B17D8BB78012B76
:1003940009D17B685B68FA78012101FA02F21A43F9
:1003A4007B685A600BE07B685B68FA78012101FA8C
:1003B40002F2D2431A407B685A6000E000BF0C3757
:1003C400BD465DF8047B704780B483B000AF7860AD
:1003D4000B46FB701346BB707B68002B1AD0FB786E
:1003E4000F2B17D87B689B68FA785200032101FA17
:1003F40002F2D2431A407B689A607B689A68BB78A1
:1004040003F00301FB785B0001FA03F31A437B68F2
:100414009A6000E000BF0C37BD465DF8047B70476E
:1004240080B483B000AF78600B46FB701346BB709A
:100434007B68002B1AD0FB780F2B17D87B68DB68FE
:10044400FA785200032101FA02F2D2431A407B687F
:10045400DA607B68DA68BB7803F00301FB785B0041
:1004640001FA03F31A437B68DA6000E000BF0C373B
:10047400BD465DF8047B704780B483B000AF7860FC
:100484000B46FB701346BB707B68002B16D0FB78C1
:100494000F2B13D8BB78012B07D1FB78012202FA6A
:1004A40003F31A467B689A6109E0FB781033012252
:1004B40002FA03F31A467B689A6100E000BF0C3726
:1004C400BD465DF8047B704780B485B000AFF8602A
:1004D4000B467A60FB72FB68002B13D0FB7A0F2B60
:1004E40010D87B68002B0DD0FB681B69FA7A0121B8
:1004F40001FA02F21A40FB7A22FA03F3DAB27B68B9
:100504001A7000E000BF1437BD465DF8047B7047E5
:1005140080B400AF454B1B68444A43F001031360A9
:1005240000BF424B1B6803F00203002BF9D0404B81
:100534001B683F4A23F0070313603D4B1B683C4A8A
:1005440043F0020313603A4B1B68394A43F4807347
:100554001360374B1B68364A43F400731360344B03
:100564001B68334A43F480631360304B00225A60A3
:100574002E4B5B682D4A43F0100353602B4B5B6892
:100584002A4A43F4A8435360284B5B68274A43F440
:1005940080335360254B5B68244A23F48003536003
:1005A400224B5B68214A43F0E06353601F4B9B6816
:1005B4001E4A23F0F00393601C4B9B681B4A23F4F0
:1005C400E0539360194B9B68184A43F4805393603B
:1005D400164B9B68154A23F460439360134B1B68C6
:1005E400124A43F08073136000BF104B1B6803F082
:1005F4000073002BF9D00D4B9B680C4A23F00303C6
:1006040093600A4B9B68094A43F00203936000BF5E
:10061400064B9B689B0803F00303022BF8D100BF31
:1006240000BFBD465DF8047B704700BF0038024040
:10063400003C024080B483B000AF03460A46FB711D
:100644001346BB71FB79032B36D801A252F823F071
:10065400650600087B06000891060008A706000846
:10066400194B1B6BBA79012101FA02F21146164AA1
:100674000B43136321E0144B5B6BBA79012101FA3C
:1006840002F21146104A0B43536316E00E4B1B6CE7
:10069400BA79012101FA02F211460B4A0B431364A1
:1006A4000BE0094B5B6CBA79012101FA02F21146A5
:1006B400054A0B43536400E000BF00BF0C37BD463E
:1006C4005DF8047B704700BF0038024080B400AF7F
:1006D4000B4B1B680A4A23F001031360084B1B6889
:1006E400074A43F004031360054B1B68044A23F0D4
:1006F4000203136000BFBD465DF8047B704700BF72
:1007040010E000E080B483B000AF78601EE0154BC9
:10071400154A5A60134B00229A60124B1B68114A07
:1007240043F00103136000BF0E4B1B6803F48033D6
:10073400002BF9D00B4B1B680A4A23F0010313600A
:10074400084B00225A60074B00229A607B685A1EAD
:100754007A60002BDBD100BF00BF0C37BD465DF8CB
:10076400047B704710E000E01F48010080B582B0B0
:1007740000AF78607B680E4A934204D100210020C8
:10078400FFF758FF10E07B680A4A934204D1012125
:100794000020FFF74FFF07E07B68074A934203D12D
:1007A40002210020FFF746FF00BF0837BD4680BD89
:1007B40000000240000402400008024084B080B5FA
:1007C40082B000AF07F1100C8CE80F000023FB711E
:1007D4003EE0FB7907F1100252F823301846FFF788
:1007E400C5FFFB7907F1100252F82300FB7910339F
:1007F4003B441B7C01221946FFF78EFDFB7907F170
:10080400100252F82300FB7910333B441B7C002276
:100814001946FFF7ADFDFB7907F1100252F82300EA
:10082400FB7910333B441B7C00221946FFF7CCFDB7
:10083400FB7907F1100252F82300FB7910333B4493
:100844001B7C01221946FFF717FEFB790133FB716C
:10085400FB79032BBDD90023FB7129E0FB79043319
:100864009B0010333B445B681846FFF77FFFFB791E
:1008740004339B0010333B445868FB7910333B44EA
:1008840093F8203000221946FFF746FDFB79043324
:100894009B0010333B445868FB7910333B4493F876
:1008A400203001221946FFF7BBFDFB790133FB71B0
:1008B400FB79022BD2D900BF00BF0837BD46BDE883
:1008C400804004B07047000084B080B582B000AFAF
:1008D40007F1100C8CE80F00FF237B710023FB71E0
:1008E40069E0FB7907F1100252F82300FB79103319
:1008F4003B441B7C00221946FFF7BEFD0023BB715D
:1009040046E0BB7904339B0010333B445868BB7901
:1009140010333B4493F820303A1D1946FFF7D4FDB9
:100924003B79002B31D11420FFF7ECFEBB79043363
:100934009B0010333B445868BB7910333B4493F815
:1009440020303A1D1946FFF7BFFD3B79002B1CD11F
:10095400FA79B9791D4813465B00134403440B44E8
:100964001B787B710EE0BB7904339B0010333B444E
:100974005868BB7910333B4493F820303A1D19462C
:10098400FFF7A2FD3B79002BEDD0BB790133BB719E
:10099400BB79022BB5D9FB7907F1100252F8230079
:1009A400FB7910333B441B7C01221946FFF764FD9D
:1009B400FB790133FB71FB79032B92D97B791846C0
:1009C4000837BD46BDE8804004B07047040F0008F6
:1009D40080B582B000AF3B4683E803003B683979B9
:1009E40001221846FFF798FC3B6839790022184623
:1009F400FFF7BEFC3B68397900221846FFF7E4FC98
:100A04003B4693E8030000F004F800BF0837BD46F6
:100A140080BD80B582B000AF3B4683E803007B799C
:100A2400012B06D13B68397900221846FFF724FDD3
:100A340008E07B79002B05D13B68397901221846FF
:100A4400FFF71AFD00BF0837BD4680BD80B582B0F0
:100A540000AF78607B680E4A934204D100210020E5
:100A6400FFF7E8FD10E07B680A4A934204D10121B4
:100A74000020FFF7DFFD07E07B68074A934203D1BC
:100A840002210020FFF7D6FD00BF0837BD4680BD18
:100A940000000240000402400008024084B0B0B5E7
:100AA4008AB008AF07F1180484E80F000023FB7133
:100AB4000AE0FB7907F1180252F823301846FFF7D1
:100AC400C5FFFB790133FB71FB79072BF1D90023B7
:100AD400FB712CE0FB7907F1180252F82300FB7933
:100AE40018333B4493F8203001221946FFF714FCD5
:100AF400FB7907F1180252F82300FB7918333B44C1
:100B040093F8203000221946FFF732FCFB7907F1F5
:100B1400180252F82300FB7918333B4493F8203031
:100B240000221946FFF750FCFB790133FB71FB7976
:100B3400072BCFD96D4607F128040FCC0FC594E8D5
:100B4400070085E8070007F118030FCB00F06AF8E7
:100B54006D4607F128040FCC0FC594E8070085E81B
:100B6400070007F118030FCB00F0B6F800BF0837F1
:100B7400BD46BDE8B04004B07047000084B080B505
:100B840082B000AF07F1100C8CE80F0097F83C30EE
:100B9400092B3DD80023FB7137E097F83C30204AFD
:100BA400D35C1946FB79012202FA03F301EA03023A
:100BB400FB7942FA03F3BB7197F83830002B0ED15E
:100BC400FB7907F1100252F82300FB7910333B4400
:100BD40093F82030BA791946FFF74EFC12E0FB79FE
:100BE40007F1100252F82300FB7910333B4493F8C9
:100BF4002010BB79002B0CBF01230023DBB21A4663
:100C0400FFF73AFCFB790133FB71FB79062BC4D95E
:100C140000BF0837BD46BDE8804004B0704700BF40
:100C2400100F000884B080B582B000AF07F1100C3B
:100C34008CE80F000023FB7123E097F83830002B79
:100C44000ED1FB7907F1100252F82300FB7910331F
:100C54003B4493F8203000221946FFF70DFC0DE0C9
:100C6400FB7907F1100252F82300FB7910333B445F
:100C740093F8203001221946FFF7FEFBFB7901337C
:100C8400FB71FB79062BD8D900BF00BF0837BD46DE
:100C9400BDE8804004B0704784B080B500AF07F170
:100CA400080C8CE80F0097F83030002B07D17B6AD2
:100CB40097F82F1000221846FFF7DEFB06E07B6A48
:100CC40097F82F1001221846FFF7D6FB00BFBD4648
:100CD400BDE8804004B0704784B080B500AF07F130
:100CE400080C8CE80F0097F83030002B07D17B6A92
:100CF40097F82F1001221846FFF7BEFB06E07B6A27
:100D040097F82F1000221846FFF7B6FB00BFBD4628
:100D1400BDE8804004B0704780B582B000AF3B4668
:100D240083E803003B68397900221846FFF7F4FA98
:100D34007B79012B06D13B68397902221846FFF7EB
:100D44006FFB0FE07B79002B06D13B6839790122D8
:100D54001846FFF765FB05E03B6839790022184621
:100D6400FFF75EFB00BF0837BD4680BD0D488546D2
:100D7400FFF7C0FA0C480D490D4A002302E0D4588D
:100D8400C4500433C4188C42F9D30A4A0A4C0023D1
:100D940001E013600432A242FBD300F011F8FFF724
:100DA40017FAFEE700800120000000208C040020D8
:100DB4002C0F00088C040020AC040020FEE7000087
:100DC40070B50D4E0D4D761BB61006D0002455F8A7
:100DD400043B01349847A642F9D1094E094D761BCC
:100DE40000F082F8B61006D0002455F8043B013414
:100DF4009847A642F9D170BD200F0008200F0008C3
:100E0400280F0008200F0008024B13B1024800F01D
:100E140005B87047000000002D0E000800230146AD
:100E24001A46184600F01AB838B5084B084D5B1B33
:100E34009C1007D0043B1D44013C55F804399847E5
:100E4400002CF9D1BDE8384000F054B82C0F00084C
:100E5400280F0008704700BF704700BF2DE9F04716
:100E6400DFF880A00646DAF8000098460F4691465F
:100E7400FFF7F0FF1A4B1B68D3F8484124B36568A9
:100E84001F2D26DC5EB96B1C0235DAF800006360A6
:100E940044F82570FFF7E0FF0020BDE8F08704EB7D
:100EA40085010123C1F88890D4F88821AB401A4306
:100EB400022EC4F88821C1F80881E4D1D4F88C2129
:100EC4001343C4F88C31DEE703F5A674C3F8484134
:100ED400D5E7DAF80000FFF7BFFF4FF0FF30DCE79B
:100EE4001C0F000888040020F8B500BFF8BC08BC3B
:100EF4009E467047F8B500BFF8BC08BC9E467047D4
:100F04003132333435363738392A30233F065B4F94
:0C0F1400666D7D077F6F0000600000200C
:080F20000D0E0008B9010008E4
:040F28009501000827
:100F2C00000002400101000000000240000100002E
:100F3C000004024000040240000002400000024095
:100F4C00000002400000024000000240000002408D
:100F5C00000102030405060700000000000802401F
:100F6C000008024000080240000802400001020391
:100F7C000008024000080240000802400405060078
:100F8C00000000004C030020B40300201C040020CF
:100F9C000000000000000000000000000000000045
:100FAC000000000000000000000000000000000035
:100FBC000000000000000000000000000000000025
:100FCC000000000000000000000000000000000015
:100FDC000000000000000000000000000000000005
:100FEC0000000000000000000000000000000000F5
:100FFC0000000000000000000000000000000000E5
:10100C0000000000000000000000000000000000D4
:10101C0000000000000000000000000000000000C4
:10102C0000000000000000000100000000000000B3
:10103C000E33CDAB34126DE6ECDE05000B00000078
:10104C000000000000000000000000000000000094
:10105C000000000000000000000000000000000084
:10106C000000000000000000000000000000000074
:10107C000000000000000000000000000000000064
:0C13AC000000000000000000A804002069
:0400000508000D7171
:00000001FF
